{
  "_format": "hh-sol-artifact-1",
  "contractName": "Exams",
  "sourceName": "contracts/Exams.sol",
  "abi": [
    {
      "inputs": [
        {
          "internalType": "address",
          "name": "_addressToPermit",
          "type": "address"
        }
      ],
      "name": "addPermission",
      "outputs": [],
      "stateMutability": "nonpayable",
      "type": "function"
    },
    {
      "inputs": [],
      "name": "getOwnExams",
      "outputs": [
        {
          "components": [
            {
              "internalType": "string[]",
              "name": "videos",
              "type": "string[]"
            },
            {
              "internalType": "string[]",
              "name": "images",
              "type": "string[]"
            },
            {
              "internalType": "string[]",
              "name": "texts",
              "type": "string[]"
            },
            {
              "internalType": "uint256",
              "name": "timestamp",
              "type": "uint256"
            }
          ],
          "internalType": "struct Exams.ExamResult[]",
          "name": "",
          "type": "tuple[]"
        }
      ],
      "stateMutability": "view",
      "type": "function"
    },
    {
      "inputs": [],
      "name": "getPermissions",
      "outputs": [
        {
          "internalType": "address[]",
          "name": "",
          "type": "address[]"
        }
      ],
      "stateMutability": "view",
      "type": "function"
    },
    {
      "inputs": [
        {
          "internalType": "address",
          "name": "_addressToRemove",
          "type": "address"
        }
      ],
      "name": "removePermission",
      "outputs": [],
      "stateMutability": "nonpayable",
      "type": "function"
    },
    {
      "inputs": [
        {
          "internalType": "address",
          "name": "_pacientAddress",
          "type": "address"
        }
      ],
      "name": "searchPatientExam",
      "outputs": [
        {
          "components": [
            {
              "internalType": "string[]",
              "name": "videos",
              "type": "string[]"
            },
            {
              "internalType": "string[]",
              "name": "images",
              "type": "string[]"
            },
            {
              "internalType": "string[]",
              "name": "texts",
              "type": "string[]"
            },
            {
              "internalType": "uint256",
              "name": "timestamp",
              "type": "uint256"
            }
          ],
          "internalType": "struct Exams.ExamResult[]",
          "name": "",
          "type": "tuple[]"
        }
      ],
      "stateMutability": "view",
      "type": "function"
    },
    {
      "inputs": [
        {
          "internalType": "address",
          "name": "_pacientAddress",
          "type": "address"
        },
        {
          "internalType": "string[]",
          "name": "_videos",
          "type": "string[]"
        },
        {
          "internalType": "string[]",
          "name": "_images",
          "type": "string[]"
        },
        {
          "internalType": "string[]",
          "name": "_texts",
          "type": "string[]"
        },
        {
          "internalType": "uint256",
          "name": "_timestamp",
          "type": "uint256"
        }
      ],
      "name": "storeExam",
      "outputs": [],
      "stateMutability": "nonpayable",
      "type": "function"
    }
  ],
  "bytecode": "0x608060405234801561001057600080fd5b50611b92806100206000396000f3fe608060405234801561001057600080fd5b50600436106100625760003560e01c8063200b65f9146100675780634d0a5dbd146100855780638f180916146100a1578063c0a609f6146100bd578063c3a07df6146100ed578063e074bb471461010b575b600080fd5b61006f610127565b60405161007c91906111cc565b60405180910390f35b61009f600480360381019061009a9190611260565b610457565b005b6100bb60048036038101906100b691906114d4565b610644565b005b6100d760048036038101906100d29190611260565b610736565b6040516100e491906111cc565b60405180910390f35b6100f5610bb8565b6040516101029190611661565b60405180910390f35b61012560048036038101906101209190611260565b610c83565b005b60606000803373ffffffffffffffffffffffffffffffffffffffff1673ffffffffffffffffffffffffffffffffffffffff168152602001908152602001600020805480602002602001604051908101604052809291908181526020016000905b8282101561044e578382906000526020600020906004020160405180608001604052908160008201805480602002602001604051908101604052809291908181526020016000905b8282101561027b5783829060005260206000200180546101ee906116b2565b80601f016020809104026020016040519081016040528092919081815260200182805461021a906116b2565b80156102675780601f1061023c57610100808354040283529160200191610267565b820191906000526020600020905b81548152906001019060200180831161024a57829003601f168201915b5050505050815260200190600101906101cf565b50505050815260200160018201805480602002602001604051908101604052809291908181526020016000905b828210156103545783829060005260206000200180546102c7906116b2565b80601f01602080910402602001604051908101604052809291908181526020018280546102f3906116b2565b80156103405780601f1061031557610100808354040283529160200191610340565b820191906000526020600020905b81548152906001019060200180831161032357829003601f168201915b5050505050815260200190600101906102a8565b50505050815260200160028201805480602002602001604051908101604052809291908181526020016000905b8282101561042d5783829060005260206000200180546103a0906116b2565b80601f01602080910402602001604051908101604052809291908181526020018280546103cc906116b2565b80156104195780601f106103ee57610100808354040283529160200191610419565b820191906000526020600020905b8154815290600101906020018083116103fc57829003601f168201915b505050505081526020019060010190610381565b50505050815260200160038201548152505081526020019060010190610187565b50505050905090565b60005b600160003373ffffffffffffffffffffffffffffffffffffffff1673ffffffffffffffffffffffffffffffffffffffff168152602001908152602001600020805490508110156105a0578173ffffffffffffffffffffffffffffffffffffffff16600160003373ffffffffffffffffffffffffffffffffffffffff1673ffffffffffffffffffffffffffffffffffffffff168152602001908152602001600020828154811061050c5761050b6116e3565b5b9060005260206000200160009054906101000a900473ffffffffffffffffffffffffffffffffffffffff1673ffffffffffffffffffffffffffffffffffffffff160361058d576040517f08c379a00000000000000000000000000000000000000000000000000000000081526004016105849061176f565b60405180910390fd5b8080610598906117be565b91505061045a565b50600160003373ffffffffffffffffffffffffffffffffffffffff1673ffffffffffffffffffffffffffffffffffffffff168152602001908152602001600020819080600181540180825580915050600190039060005260206000200160009091909190916101000a81548173ffffffffffffffffffffffffffffffffffffffff021916908373ffffffffffffffffffffffffffffffffffffffff16021790555050565b6000808673ffffffffffffffffffffffffffffffffffffffff1673ffffffffffffffffffffffffffffffffffffffff168152602001908152602001600020604051806080016040528086815260200185815260200184815260200183815250908060018154018082558091505060019003906000526020600020906004020160009091909190915060008201518160000190805190602001906106e8929190610e54565b506020820151816001019080519060200190610705929190610e54565b506040820151816002019080519060200190610722929190610e54565b506060820151816003015550505050505050565b606060005b600160008473ffffffffffffffffffffffffffffffffffffffff1673ffffffffffffffffffffffffffffffffffffffff16815260200190815260200160002080549050811015610b7757600160008473ffffffffffffffffffffffffffffffffffffffff1673ffffffffffffffffffffffffffffffffffffffff16815260200190815260200160002081815481106107d6576107d56116e3565b5b9060005260206000200160009054906101000a900473ffffffffffffffffffffffffffffffffffffffff1673ffffffffffffffffffffffffffffffffffffffff163373ffffffffffffffffffffffffffffffffffffffff1603610b64576000808473ffffffffffffffffffffffffffffffffffffffff1673ffffffffffffffffffffffffffffffffffffffff168152602001908152602001600020805480602002602001604051908101604052809291908181526020016000905b82821015610b58578382906000526020600020906004020160405180608001604052908160008201805480602002602001604051908101604052809291908181526020016000905b828210156109855783829060005260206000200180546108f8906116b2565b80601f0160208091040260200160405190810160405280929190818152602001828054610924906116b2565b80156109715780601f1061094657610100808354040283529160200191610971565b820191906000526020600020905b81548152906001019060200180831161095457829003601f168201915b5050505050815260200190600101906108d9565b50505050815260200160018201805480602002602001604051908101604052809291908181526020016000905b82821015610a5e5783829060005260206000200180546109d1906116b2565b80601f01602080910402602001604051908101604052809291908181526020018280546109fd906116b2565b8015610a4a5780601f10610a1f57610100808354040283529160200191610a4a565b820191906000526020600020905b815481529060010190602001808311610a2d57829003601f168201915b5050505050815260200190600101906109b2565b50505050815260200160028201805480602002602001604051908101604052809291908181526020016000905b82821015610b37578382906000526020600020018054610aaa906116b2565b80601f0160208091040260200160405190810160405280929190818152602001828054610ad6906116b2565b8015610b235780601f10610af857610100808354040283529160200191610b23565b820191906000526020600020905b815481529060010190602001808311610b0657829003601f168201915b505050505081526020019060010190610a8b565b50505050815260200160038201548152505081526020019060010190610891565b50505050915050610bb3565b8080610b6f906117be565b91505061073b565b506040517f08c379a0000000000000000000000000000000000000000000000000000000008152600401610baa90611852565b60405180910390fd5b919050565b6060600160003373ffffffffffffffffffffffffffffffffffffffff1673ffffffffffffffffffffffffffffffffffffffff168152602001908152602001600020805480602002602001604051908101604052809291908181526020018280548015610c7957602002820191906000526020600020905b8160009054906101000a900473ffffffffffffffffffffffffffffffffffffffff1673ffffffffffffffffffffffffffffffffffffffff1681526020019060010190808311610c2f575b5050505050905090565b60005b600160003373ffffffffffffffffffffffffffffffffffffffff1673ffffffffffffffffffffffffffffffffffffffff16815260200190815260200160002080549050811015610e15578173ffffffffffffffffffffffffffffffffffffffff16600160003373ffffffffffffffffffffffffffffffffffffffff1673ffffffffffffffffffffffffffffffffffffffff1681526020019081526020016000208281548110610d3857610d376116e3565b5b9060005260206000200160009054906101000a900473ffffffffffffffffffffffffffffffffffffffff1673ffffffffffffffffffffffffffffffffffffffff1603610e0257600160003373ffffffffffffffffffffffffffffffffffffffff1673ffffffffffffffffffffffffffffffffffffffff1681526020019081526020016000208181548110610dcf57610dce6116e3565b5b9060005260206000200160006101000a81549073ffffffffffffffffffffffffffffffffffffffff021916905550610e51565b8080610e0d906117be565b915050610c86565b506040517f08c379a0000000000000000000000000000000000000000000000000000000008152600401610e48906118be565b60405180910390fd5b50565b828054828255906000526020600020908101928215610e9c579160200282015b82811115610e9b578251829081610e8b9190611a8a565b5091602001919060010190610e74565b5b509050610ea99190610ead565b5090565b5b80821115610ecd5760008181610ec49190610ed1565b50600101610eae565b5090565b508054610edd906116b2565b6000825580601f10610eef5750610f0e565b601f016020900490600052602060002090810190610f0d9190610f11565b5b50565b5b80821115610f2a576000816000905550600101610f12565b5090565b600081519050919050565b600082825260208201905092915050565b6000819050602082019050919050565b600081519050919050565b600082825260208201905092915050565b6000819050602082019050919050565b600081519050919050565b600082825260208201905092915050565b60005b83811015610fc0578082015181840152602081019050610fa5565b60008484015250505050565b6000601f19601f8301169050919050565b6000610fe882610f86565b610ff28185610f91565b9350611002818560208601610fa2565b61100b81610fcc565b840191505092915050565b60006110228383610fdd565b905092915050565b6000602082019050919050565b600061104282610f5a565b61104c8185610f65565b93508360208202850161105e85610f76565b8060005b8581101561109a578484038952815161107b8582611016565b94506110868361102a565b925060208a01995050600181019050611062565b50829750879550505050505092915050565b6000819050919050565b6110bf816110ac565b82525050565b600060808301600083015184820360008601526110e28282611037565b915050602083015184820360208601526110fc8282611037565b915050604083015184820360408601526111168282611037565b915050606083015161112b60608601826110b6565b508091505092915050565b600061114283836110c5565b905092915050565b6000602082019050919050565b600061116282610f2e565b61116c8185610f39565b93508360208202850161117e85610f4a565b8060005b858110156111ba578484038952815161119b8582611136565b94506111a68361114a565b925060208a01995050600181019050611182565b50829750879550505050505092915050565b600060208201905081810360008301526111e68184611157565b905092915050565b6000604051905090565b600080fd5b600080fd5b600073ffffffffffffffffffffffffffffffffffffffff82169050919050565b600061122d82611202565b9050919050565b61123d81611222565b811461124857600080fd5b50565b60008135905061125a81611234565b92915050565b600060208284031215611276576112756111f8565b5b60006112848482850161124b565b91505092915050565b600080fd5b7f4e487b7100000000000000000000000000000000000000000000000000000000600052604160045260246000fd5b6112ca82610fcc565b810181811067ffffffffffffffff821117156112e9576112e8611292565b5b80604052505050565b60006112fc6111ee565b905061130882826112c1565b919050565b600067ffffffffffffffff82111561132857611327611292565b5b602082029050602081019050919050565b600080fd5b600080fd5b600067ffffffffffffffff82111561135e5761135d611292565b5b61136782610fcc565b9050602081019050919050565b82818337600083830152505050565b600061139661139184611343565b6112f2565b9050828152602081018484840111156113b2576113b161133e565b5b6113bd848285611374565b509392505050565b600082601f8301126113da576113d961128d565b5b81356113ea848260208601611383565b91505092915050565b60006114066114018461130d565b6112f2565b9050808382526020820190506020840283018581111561142957611428611339565b5b835b8181101561147057803567ffffffffffffffff81111561144e5761144d61128d565b5b80860161145b89826113c5565b8552602085019450505060208101905061142b565b5050509392505050565b600082601f83011261148f5761148e61128d565b5b813561149f8482602086016113f3565b91505092915050565b6114b1816110ac565b81146114bc57600080fd5b50565b6000813590506114ce816114a8565b92915050565b600080600080600060a086880312156114f0576114ef6111f8565b5b60006114fe8882890161124b565b955050602086013567ffffffffffffffff81111561151f5761151e6111fd565b5b61152b8882890161147a565b945050604086013567ffffffffffffffff81111561154c5761154b6111fd565b5b6115588882890161147a565b935050606086013567ffffffffffffffff811115611579576115786111fd565b5b6115858882890161147a565b9250506080611596888289016114bf565b9150509295509295909350565b600081519050919050565b600082825260208201905092915050565b6000819050602082019050919050565b6115d881611222565b82525050565b60006115ea83836115cf565b60208301905092915050565b6000602082019050919050565b600061160e826115a3565b61161881856115ae565b9350611623836115bf565b8060005b8381101561165457815161163b88826115de565b9750611646836115f6565b925050600181019050611627565b5085935050505092915050565b6000602082019050818103600083015261167b8184611603565b905092915050565b7f4e487b7100000000000000000000000000000000000000000000000000000000600052602260045260246000fd5b600060028204905060018216806116ca57607f821691505b6020821081036116dd576116dc611683565b5b50919050565b7f4e487b7100000000000000000000000000000000000000000000000000000000600052603260045260246000fd5b600082825260208201905092915050565b7f5065726d697373696f6e20616c7265616479206772616e746564000000000000600082015250565b6000611759601a83611712565b915061176482611723565b602082019050919050565b600060208201905081810360008301526117888161174c565b9050919050565b7f4e487b7100000000000000000000000000000000000000000000000000000000600052601160045260246000fd5b60006117c9826110ac565b91507fffffffffffffffffffffffffffffffffffffffffffffffffffffffffffffffff82036117fb576117fa61178f565b5b600182019050919050565b7f5065726d697373696f6e206e6f7420666f756e64000000000000000000000000600082015250565b600061183c601483611712565b915061184782611806565b602082019050919050565b6000602082019050818103600083015261186b8161182f565b9050919050565b7f41646472657373206e6f7420666f756e64000000000000000000000000000000600082015250565b60006118a8601183611712565b91506118b382611872565b602082019050919050565b600060208201905081810360008301526118d78161189b565b9050919050565b60008190508160005260206000209050919050565b60006020601f8301049050919050565b600082821b905092915050565b6000600883026119407fffffffffffffffffffffffffffffffffffffffffffffffffffffffffffffffff82611903565b61194a8683611903565b95508019841693508086168417925050509392505050565b6000819050919050565b600061198761198261197d846110ac565b611962565b6110ac565b9050919050565b6000819050919050565b6119a18361196c565b6119b56119ad8261198e565b848454611910565b825550505050565b600090565b6119ca6119bd565b6119d5818484611998565b505050565b5b818110156119f9576119ee6000826119c2565b6001810190506119db565b5050565b601f821115611a3e57611a0f816118de565b611a18846118f3565b81016020851015611a27578190505b611a3b611a33856118f3565b8301826119da565b50505b505050565b600082821c905092915050565b6000611a6160001984600802611a43565b1980831691505092915050565b6000611a7a8383611a50565b9150826002028217905092915050565b611a9382610f86565b67ffffffffffffffff811115611aac57611aab611292565b5b611ab682546116b2565b611ac18282856119fd565b600060209050601f831160018114611af45760008415611ae2578287015190505b611aec8582611a6e565b865550611b54565b601f198416611b02866118de565b60005b82811015611b2a57848901518255600182019150602085019450602081019050611b05565b86831015611b475784890151611b43601f891682611a50565b8355505b6001600288020188555050505b50505050505056fea264697066735822122016d503f29a4808bcb30fa137cbe9f59e8d1387f8580d27aaea0da3608efca41664736f6c63430008120033",
  "linkReferences": {},
  "deployedLinkReferences": {}
}